{
  "contractName": "SocialCampaign",
  "abi": [
    {
      "inputs": [
        {
          "internalType": "address payable",
          "name": "o",
          "type": "address"
        },
        {
          "internalType": "bytes32",
          "name": "target",
          "type": "bytes32"
        },
        {
          "internalType": "uint256",
          "name": "likesVal",
          "type": "uint256"
        },
        {
          "internalType": "uint256",
          "name": "viewsVal",
          "type": "uint256"
        },
        {
          "internalType": "address",
          "name": "campaignOracle",
          "type": "address"
        }
      ],
      "payable": false,
      "stateMutability": "nonpayable",
      "type": "constructor"
    },
    {
      "constant": true,
      "inputs": [],
      "name": "bounty",
      "outputs": [
        {
          "internalType": "uint256",
          "name": "",
          "type": "uint256"
        }
      ],
      "payable": false,
      "stateMutability": "view",
      "type": "function"
    },
    {
      "constant": true,
      "inputs": [],
      "name": "campaignSuccess",
      "outputs": [
        {
          "internalType": "bool",
          "name": "",
          "type": "bool"
        }
      ],
      "payable": false,
      "stateMutability": "view",
      "type": "function"
    },
    {
      "constant": true,
      "inputs": [],
      "name": "daysToCompletion",
      "outputs": [
        {
          "internalType": "uint256",
          "name": "",
          "type": "uint256"
        }
      ],
      "payable": false,
      "stateMutability": "view",
      "type": "function"
    },
    {
      "constant": true,
      "inputs": [],
      "name": "state",
      "outputs": [
        {
          "internalType": "uint256",
          "name": "",
          "type": "uint256"
        }
      ],
      "payable": false,
      "stateMutability": "view",
      "type": "function"
    },
    {
      "constant": true,
      "inputs": [],
      "name": "targetLikes",
      "outputs": [
        {
          "internalType": "uint256",
          "name": "",
          "type": "uint256"
        }
      ],
      "payable": false,
      "stateMutability": "view",
      "type": "function"
    },
    {
      "constant": true,
      "inputs": [],
      "name": "targetViews",
      "outputs": [
        {
          "internalType": "uint256",
          "name": "",
          "type": "uint256"
        }
      ],
      "payable": false,
      "stateMutability": "view",
      "type": "function"
    },
    {
      "constant": true,
      "inputs": [],
      "name": "videoID",
      "outputs": [
        {
          "internalType": "bytes32",
          "name": "",
          "type": "bytes32"
        }
      ],
      "payable": false,
      "stateMutability": "view",
      "type": "function"
    },
    {
      "constant": false,
      "inputs": [],
      "name": "validateJob",
      "outputs": [
        {
          "internalType": "bool",
          "name": "success",
          "type": "bool"
        }
      ],
      "payable": false,
      "stateMutability": "nonpayable",
      "type": "function"
    },
    {
      "constant": false,
      "inputs": [
        {
          "internalType": "address",
          "name": "newDelegate",
          "type": "address"
        }
      ],
      "name": "addDelegate",
      "outputs": [
        {
          "internalType": "bool",
          "name": "success",
          "type": "bool"
        }
      ],
      "payable": false,
      "stateMutability": "nonpayable",
      "type": "function"
    },
    {
      "constant": false,
      "inputs": [
        {
          "internalType": "address",
          "name": "newOracle",
          "type": "address"
        }
      ],
      "name": "changeOracle",
      "outputs": [
        {
          "internalType": "bool",
          "name": "success",
          "type": "bool"
        }
      ],
      "payable": false,
      "stateMutability": "nonpayable",
      "type": "function"
    },
    {
      "constant": false,
      "inputs": [],
      "name": "takeJob",
      "outputs": [
        {
          "internalType": "bool",
          "name": "success",
          "type": "bool"
        }
      ],
      "payable": false,
      "stateMutability": "nonpayable",
      "type": "function"
    },
    {
      "constant": false,
      "inputs": [],
      "name": "quitJob",
      "outputs": [
        {
          "internalType": "bool",
          "name": "success",
          "type": "bool"
        }
      ],
      "payable": false,
      "stateMutability": "nonpayable",
      "type": "function"
    },
    {
      "constant": false,
      "inputs": [],
      "name": "enableJob",
      "outputs": [
        {
          "internalType": "bool",
          "name": "success",
          "type": "bool"
        }
      ],
      "payable": true,
      "stateMutability": "payable",
      "type": "function"
    },
    {
      "constant": false,
      "inputs": [],
      "name": "disableJob",
      "outputs": [
        {
          "internalType": "bool",
          "name": "success",
          "type": "bool"
        }
      ],
      "payable": false,
      "stateMutability": "nonpayable",
      "type": "function"
    }
  ],
  "bytecode": "0x6080604052600060055534801561001557600080fd5b50604051610d5a380380610d5a833981810160405260a081101561003857600080fd5b81019080805190602001909291908051906020019092919080519060200190929190805190602001909291908051906020019092919050505084600360006101000a81548173ffffffffffffffffffffffffffffffffffffffff021916908373ffffffffffffffffffffffffffffffffffffffff16021790555084600460006101000a81548173ffffffffffffffffffffffffffffffffffffffff021916908373ffffffffffffffffffffffffffffffffffffffff160217905550836001819055508260098190555081600a81905550806000806101000a81548173ffffffffffffffffffffffffffffffffffffffff021916908373ffffffffffffffffffffffffffffffffffffffff160217905550600360009054906101000a900473ffffffffffffffffffffffffffffffffffffffff1673ffffffffffffffffffffffffffffffffffffffff163373ffffffffffffffffffffffffffffffffffffffff16146102045760023390806001815401808255809150509060018203906000526020600020016000909192909190916101000a81548173ffffffffffffffffffffffffffffffffffffffff021916908373ffffffffffffffffffffffffffffffffffffffff160217905550505b5050505050610b42806102186000396000f3fe6080604052600436106100dd5760003560e01c8063943dfef11161007f578063c19d93fb11610059578063c19d93fb146102d5578063cc2c193a14610300578063e71bdf411461032f578063f4580b0714610398576100dd565b8063943dfef114610250578063acc00b801461027b578063ace423ca146102a6576100dd565b806347c421b5116100bb57806347c421b51461015e5780635e223cfe146101c7578063792f3c6b146101f65780637d0ceaba14610221576100dd565b806304463f09146100e25780630983bfad1461010d57806341bab2441461012f575b600080fd5b3480156100ee57600080fd5b506100f76103c3565b6040518082815260200191505060405180910390f35b6101156103c9565b604051808215151515815260200191505060405180910390f35b34801561013b57600080fd5b50610144610451565b604051808215151515815260200191505060405180910390f35b34801561016a57600080fd5b506101ad6004803603602081101561018157600080fd5b81019080803573ffffffffffffffffffffffffffffffffffffffff169060200190929190505050610577565b604051808215151515815260200191505060405180910390f35b3480156101d357600080fd5b506101dc610632565b604051808215151515815260200191505060405180910390f35b34801561020257600080fd5b5061020b610728565b6040518082815260200191505060405180910390f35b34801561022d57600080fd5b5061023661072e565b604051808215151515815260200191505060405180910390f35b34801561025c57600080fd5b50610265610895565b6040518082815260200191505060405180910390f35b34801561028757600080fd5b5061029061089b565b6040518082815260200191505060405180910390f35b3480156102b257600080fd5b506102bb6108a1565b604051808215151515815260200191505060405180910390f35b3480156102e157600080fd5b506102ea61096d565b6040518082815260200191505060405180910390f35b34801561030c57600080fd5b50610315610973565b604051808215151515815260200191505060405180910390f35b34801561033b57600080fd5b5061037e6004803603602081101561035257600080fd5b81019080803573ffffffffffffffffffffffffffffffffffffffff169060200190929190505050610986565b604051808215151515815260200191505060405180910390f35b3480156103a457600080fd5b506103ad610a67565b6040518082815260200191505060405180910390f35b60085481565b60003373ffffffffffffffffffffffffffffffffffffffff16600360009054906101000a900473ffffffffffffffffffffffffffffffffffffffff1673ffffffffffffffffffffffffffffffffffffffff16148061042c575061042b33610a6d565b5b15610449576001600581905550346006819055506001905061044e565b600090505b90565b6000600360009054906101000a900473ffffffffffffffffffffffffffffffffffffffff1673ffffffffffffffffffffffffffffffffffffffff16600460009054906101000a900473ffffffffffffffffffffffffffffffffffffffff1673ffffffffffffffffffffffffffffffffffffffff1614801561052057503373ffffffffffffffffffffffffffffffffffffffff16600360009054906101000a900473ffffffffffffffffffffffffffffffffffffffff1673ffffffffffffffffffffffffffffffffffffffff1614155b1561056f5733600460006101000a81548173ffffffffffffffffffffffffffffffffffffffff021916908373ffffffffffffffffffffffffffffffffffffffff16021790555060019050610574565b600090505b90565b60003373ffffffffffffffffffffffffffffffffffffffff16600360009054906101000a900473ffffffffffffffffffffffffffffffffffffffff1673ffffffffffffffffffffffffffffffffffffffff1614806105da57506105d933610a6d565b5b1561062857816000806101000a81548173ffffffffffffffffffffffffffffffffffffffff021916908373ffffffffffffffffffffffffffffffffffffffff1602179055506001905061062d565b600090505b919050565b60003373ffffffffffffffffffffffffffffffffffffffff166000809054906101000a900473ffffffffffffffffffffffffffffffffffffffff1673ffffffffffffffffffffffffffffffffffffffff161415610720576001600760006101000a81548160ff021916908315150217905550600460009054906101000a900473ffffffffffffffffffffffffffffffffffffffff1673ffffffffffffffffffffffffffffffffffffffff166108fc6006549081150290604051600060405180830381858888f1935050505015801561070e573d6000803e3d6000fd5b50600260058190555060019050610725565b600090505b90565b600a5481565b60003373ffffffffffffffffffffffffffffffffffffffff16600360009054906101000a900473ffffffffffffffffffffffffffffffffffffffff1673ffffffffffffffffffffffffffffffffffffffff161480610791575061079033610a6d565b5b801561080c5750600360009054906101000a900473ffffffffffffffffffffffffffffffffffffffff1673ffffffffffffffffffffffffffffffffffffffff16600460009054906101000a900473ffffffffffffffffffffffffffffffffffffffff1673ffffffffffffffffffffffffffffffffffffffff16145b1561088d576000600581905550600360009054906101000a900473ffffffffffffffffffffffffffffffffffffffff1673ffffffffffffffffffffffffffffffffffffffff166108fc6006549081150290604051600060405180830381858888f19350505050158015610883573d6000803e3d6000fd5b5060019050610892565b600090505b90565b60065481565b60015481565b60003373ffffffffffffffffffffffffffffffffffffffff16600460009054906101000a900473ffffffffffffffffffffffffffffffffffffffff1673ffffffffffffffffffffffffffffffffffffffff16141561096557600360009054906101000a900473ffffffffffffffffffffffffffffffffffffffff16600460006101000a81548173ffffffffffffffffffffffffffffffffffffffff021916908373ffffffffffffffffffffffffffffffffffffffff1602179055506001905061096a565b600090505b90565b60055481565b600760009054906101000a900460ff1681565b60003373ffffffffffffffffffffffffffffffffffffffff16600360009054906101000a900473ffffffffffffffffffffffffffffffffffffffff1673ffffffffffffffffffffffffffffffffffffffff1614806109e957506109e833610a6d565b5b15610a5d5760028290806001815401808255809150509060018203906000526020600020016000909192909190916101000a81548173ffffffffffffffffffffffffffffffffffffffff021916908373ffffffffffffffffffffffffffffffffffffffff1602179055505060019050610a62565b600090505b919050565b60095481565b600080600090505b600280549050811015610b025760028181548110610a8f57fe5b9060005260206000200160009054906101000a900473ffffffffffffffffffffffffffffffffffffffff1673ffffffffffffffffffffffffffffffffffffffff168373ffffffffffffffffffffffffffffffffffffffff161415610af7576001915050610b08565b806001019050610a75565b50600090505b91905056fea265627a7a72315820a60073dc5e784e0df464fc135b91a1b63d2344e672cda32ee511250faa816f6b64736f6c634300050c0032",
  "source": "pragma solidity ^ 0.5.0;\n\ncontract SocialCampaign {\n   \n   address oracle;\n\n   //Job Info\n   bytes32 public videoID;\n   address[] delegates;\n   address payable owner;\n   address payable campaigner;\n   uint public state = 0;\n   //0 - Inactive\n   //1 - Active\n   //2 - Expired\n   uint public bounty;\n   bool public campaignSuccess;\n   uint public daysToCompletion;\n\n   //Target Values\n   uint public targetLikes;\n   uint public targetViews;\n\n   constructor(\n      address payable o,\n      bytes32 target, \n      uint likesVal, \n      uint viewsVal,\n      address campaignOracle\n   ) public{\n      owner = o;\n      campaigner = o;\n      videoID = target;\n      targetLikes = likesVal;\n      targetViews = viewsVal;\n      oracle = campaignOracle;\n      if(msg.sender != owner){\n         delegates.push(msg.sender);\n      }\n   }\n   function checkExpiration() internal view returns(bool expired){\n      if(state != 2){\n         \n         return false;\n      }\n      return true; \n   }\n   //Interactive functions\n   function validateJob() public returns(bool success){\n      if(oracle == msg.sender){\n         campaignSuccess = true;\n         campaigner.transfer(bounty);\n         state = 2;\n         return true;\n      }\n      return false;\n   }\n   function addDelegate(address newDelegate) public returns(bool success){\n      if((owner == msg.sender)||(isDelegate(msg.sender))){\n         delegates.push(newDelegate);\n         return true;\n      }\n      return false;\n   }\n   function changeOracle(address newOracle) public returns(bool success){\n      if((owner == msg.sender)||(isDelegate(msg.sender))){\n         oracle = newOracle;\n         return true;\n      }\n      return false;\n   }\n   function takeJob() public returns (bool success){\n      if((campaigner == owner)&&(owner != msg.sender)){\n         campaigner = msg.sender;\n         return true;\n      }\n      return false;\n   }\n   function quitJob() public returns (bool success){\n      if(campaigner == msg.sender){\n         campaigner = owner;\n         return true;\n      }\n      return false;\n   }\n   function enableJob() public payable returns (bool success){\n      if((owner == msg.sender)||(isDelegate(msg.sender))){\n         state = 1;\n         bounty = msg.value;\n         return true;\n      }\n      return false;\n   }\n   function disableJob() public returns (bool success){\n      if(((owner == msg.sender)||(isDelegate(msg.sender)))&&(campaigner == owner)){\n         state = 0;\n         owner.transfer(bounty);\n         return true;\n      }\n      return false;\n   }\n   function isDelegate(address target) internal view returns (bool success){\n      for(uint i = 0; i < delegates.length; ++i)\n         if(target == delegates[i])\n            return true;\n      return false;  \n   }\n}\n",
  "sourcePath": "/home/egutierrez/SoftwareProjects/Ethereum/social-campaign/contracts/socialCampaign.sol",
  "compiler": {
    "name": "solc",
    "version": "0.5.12+commit.7709ece9.Emscripten.clang"
  },
  "schemaVersion": "3.0.19",
  "updatedAt": "2019-12-14T00:09:34.605Z",
  "networkType": "ethereum",
  "devdoc": {
    "methods": {}
  },
  "userdoc": {
    "methods": {}
  }
}